:020000040800F2
:100000009009002029020008854100089D3D000854
:100010008141000841040008D94D0008000000009B
:10002000000000000000000000000000694400081B
:10003000B50600080000000065440008C14400083F
:10004000430200084302000843020008430200087C
:100050004302000843020008B906000843020008F2
:10006000430200084302000843020008430200085C
:10007000430200084302000843020008430200084C
:10008000430200084302000843020008430200083C
:100090004504000855040008430200084302000814
:1000A0004302000899450008430200084302000883
:1000B000A9450008B94500084302000843020008AA
:1000C00043020008430200084302000843020008FC
:1000D00043020008430200084302000843020008EC
:1000E00043020008430200084302000843020008DC
:1000F00043020008430200084302000843020008CC
:1001000043020008430200084302000843020008BB
:1001100043020008430200084302000843020008AB
:1001200043020008FD0400084302000843020008DF
:10013000430200084302000843020008430200088B
:100140006504000875040008430200084302000823
:10015000430200080D05000843020008C94D0008CD
:10016000430200084302000843020008430200085B
:100170004302000843020008430200080000000098
:10018000430200084302000800F002F800F03CF8C7
:100190000AA090E8000C82448344AAF10107DA45E2
:1001A00001D100F031F8AFF2090EBAE80F0013F0F8
:1001B000010F18BFFB1A43F0010318479C630000AE
:1001C000BC630000103A24BF78C878C1FAD852073F
:1001D00024BF30C830C144BF04680C6070470000C1
:1001E0000023002400250026103A28BF78C1FBD840
:1001F000520728BF30C148BF0B6070471FB506F0DB
:10020000F2F81FBD10B510BD00F0E4F81146FFF77D
:10021000F5FF04F091FE00F002F903B4FFF7F2FFDE
:1002200003BC00F005F90000094880470948004771
:10023000FEE7FEE7FEE7FEE7FEE7FEE7FEE7FEE796
:10024000FEE7FEE704480549054A064B70470000F3
:1002500085450008890100089003002090090020CE
:10026000900500209005002053EA020C00F0698000
:100270002DE9F04B4FF00006002B1FBFB3FA83F5BA
:1002800003FA05F424FA05F65E4012BF1643B2FAEB
:1002900082F502FA05F4C5F120051EBF22FA05FC1D
:1002A00044EA0C04203556EA044C4FEA144418BFC3
:1002B000641C4FF000084FF00009904271EB030CF2
:1002C00039D3002919BFB1FA81F701FA07F6B0FA5C
:1002D00080F700FA07F6C7F120071EBF20FA07FCD7
:1002E00046EA0C062037B6FBF4FCA7EB0507103FE7
:1002F00007F01F0BCBF120062CFA06F60CFA0BFBCD
:1003000044BFB3460026202FA4BF5E464FF0000B2B
:100310005BEA060C08BF4FF0010B19EB0B0948EB29
:100320000608ABFB027C06FB02CC0BFB03CCC01B1C
:1003300071EB0C01C1E70B46024641464846BDE859
:10034000F08B13B5084318BF4FF0FF300146AFF3F1
:100350000080BDE81C4070474FF0000200B5134616
:1003600094469646203922BFA0E80C50A0E80C50D5
:10037000B1F12001BFF4F7AF090728BFA0E80C5086
:1003800048BF0CC05DF804EB890028BF40F8042B7F
:1003900008BF704748BF20F8022B11F0804F18BFEC
:1003A00000F8012B704770477047704710B500F098
:1003B00009F8006810BD10B5044600F003F80460A9
:1003C00010BD000000487047100000200048704732
:1003D000100000207546FFF7F9FFAE46050069469C
:1003E000534620F00700854618B020B5FFF72AFFD6
:1003F000BDE820404FF000064FF000074FF0000826
:100400004FF0000BAC46ACE8C009ACE8C009ACE862
:10041000C009ACE8C00921F007018D46704710B54E
:100420000446AFF300802046BDE81040FFF7F5BE5C
:1004300001491820ABBEFEE726000200704700000D
:10044000FFE7FEE780B540F2E400C2F2000000F0F2
:10045000F1FB80BD80B540F2E400C2F2000000F084
:10046000E9FB80BD80B540F20C10C2F2000000F044
:10047000E1FB80BD80B540F20C10C2F2000000F03C
:10048000D9FB80BD80B584B0ADF80E00ADF80C107E
:10049000ADF80A20ADF8083040F2C401C2F2000104
:1004A0004FF40070086000208860C8600820086170
:1004B0009DF80F0040F2BA02C2F2000210709DF8DF
:1004C0000E0050709DF80D0090709DF80C00D070DB
:1004D0009DF80B0010719DF80A0050719DF80900FD
:1004E00090719DF80800D07140F2E400C2F2000063
:1004F00001AB00F015F904B080BD000080B540F2FA
:100500003410C2F2000001F003F980BD80B540F262
:100510009410C2F2000001F0FBF880BD82B001909F
:100520000198007810384AF6AB21CAF6AA21A0FB40
:10053000011000090090009946F25050C0F60000EA
:10054000405C0199C8650098042807D3FFE701992A
:100550000868042262F30900886506E001990868CA
:1005600040F2FF3290438865FFE70198806D02B04A
:100570007047000086B0059000208DF813000598A4
:10058000806A03900598806910BBFFE7039802908A
:1005900003281BD80299DFE801F0020D0218059824
:1005A00090F82F00C00720B1FFE701208DF813005D
:1005B000FFE70CE00598C06AB0F1C07F04D1FFE707
:1005C00001208DF81300FFE701E000E0FFE745E0C0
:1005D00005988069B0F5005F25D1FFE70398019089
:1005E00003281ED80199DFE801F00206021101205C
:1005F0008DF8130016E0059890F82F00C00720B181
:10060000FFE701208DF81300FFE70BE00598C06AB3
:10061000B0F1C07F04D1FFE701208DF81300FFE7A0
:1006200000E0FFE719E003980090032804D3FFE7F8
:100630000098032804D00EE001208DF813000BE091
:10064000059890F82F00C00720B1FFE701208DF832
:100650001300FFE700E0FFE7FFE7FFE79DF8130067
:1006600006B0704784B00390029101920093039802
:100670000168086820F480200860009803990968E0
:10068000486003988068402809D1FFE701980399E2
:1006900009688860029803990968C86008E00298B0
:1006A000039909688860019803990968C860FFE7A1
:1006B00004B070477047000080B5012001F00AFBCC
:1006C00080BD000072B6FFE7FEE7000084B0029034
:1006D0000191029890F820008DF803009DF8030026
:1006E000012805D0FFE79DF8030002280AD1FFE7A3
:1006F000019A0298016848691043486100208DF80A
:100700000F0008E00299486A40F480204862012006
:100710008DF80F00FFE79DF80F0004B07047000050
:1007200088B00690059104920393069890F82000F3
:100730008DF807000698006880680090059880682A
:1007400008B9FFE700E0FFE79DF80700012806D0A1
:10075000FFE79DF80700022840F08080FFE79DF842
:100760000300400700280CD4FFE79DF803000007B2
:10077000002806D4FFE79DF80300C006002864D5D2
:10078000FFE70098C0F301600290029901208840C1
:10079000039908600598806868B9FFE705980168C3
:1007A000C06840EA415006990968029A01EB0211BB
:1007B000C1F880010EE005994A688868C96840EA76
:1007C000C200084306990968029A01EB0211C1F8B8
:1007D0008001FFE70598006906990968029A01EB14
:1007E0000211C1F884010598007D01280CD1FFE7B2
:1007F00006980068029900EB0111D1F8840140F4D9
:100800008070C1F88401FFE7049840680699096880
:10081000029A01EB0211C1F88C0104980068069954
:100820000968029A01EB0211C1F888010698006874
:10083000029900EB0111D1F8800140F00100C1F8EC
:10084000800100208DF81F0011E00699486A40F4ED
:100850000010486201208DF81F0008E00699486AE0
:1008600040F48020486201208DF81F00FFE79DF8CA
:100870001F0008B07047000086B0049003910498F0
:1008800090F820008DF803009DF80300012806D0A1
:10089000FFE79DF80300022840F0B080FFE746F232
:1008A0000040C4F2000001900199D1F8000240F02C
:1008B0000100C1F800020199D1F8000220F47C5037
:1008C000C1F800020398426A0199D1F8000240EA97
:1008D0000220C1F800020398406900F01F010120C6
:1008E00088400290029A0199D1F81C029043C1F805
:1008F0001C020398C069F0B9FFE7029A0199D1F888
:100900000C029043C1F80C02039A9088D168526996
:1009100040EA0140019901EBC201C1F84002039A8B
:1009200010889168526940EA0140019901EBC201C7
:10093000C1F84402FFE70398C06901281ED1FFE710
:10094000029A0199D1F80C021043C1F80C02039AE3
:1009500090881168526940EA0140019901EBC20197
:10096000C1F84002039A90899168526940EA0140B7
:10097000019901EBC201C1F84402FFE703988069C5
:1009800040B9FFE7029A0199D1F804029043C1F8F7
:10099000040207E0029A0199D1F804021043C1F859
:1009A0000402FFE70398006940B9FFE7029A019942
:1009B000D1F814029043C1F8140207E0029A019999
:1009C000D1F814021043C1F81402FFE70398006A3B
:1009D000012808D1FFE7029A0199D1F81C021043BF
:1009E000C1F81C02FFE70199D1F8000220F00100D4
:1009F000C1F8000200208DF8170008E00499486A49
:100A000040F48020486201208DF81700FFE79DF830
:100A1000170006B07047000081B0009001B0704729
:100A200086B00490039102920193049890F82000FC
:100A30008DF803009DF80300012806D0FFE79DF81C
:100A40000300022840F0E880FFE7039880B9FFE741
:100A500004980068C068800748B9FFE70499486AAD
:100A600040F40010486201208DF81700DDE00FE02F
:100A7000049800680069800748B9FFE70499486A4C
:100A800040F40010486201208DF81700CDE0FFE728
:100A900004980068039900EB0110D0F8B00100F051
:100AA0000400029988600298806858B9FFE70498AA
:100AB0000068039900EB0110D0F8B001400D0299D5
:100AC00008600AE004980068039900EB0110D0F870
:100AD000B001C00802994860FFE7049800680399D4
:100AE00000EB0110D0F8B00100F002000299C860DC
:100AF00004980068039900EB0110D0F8B40100F0ED
:100B00000F00082804D3FFE70299082008610BE0D2
:100B100004980068039900EB0110D0F8B40100F0CC
:100B20000F0002990861FFE704980068039900EB41
:100B30000110D0F8B40180B2000A029988610498CB
:100B40000068039900EB0110D0F8B401000C029981
:100B5000486104980068039900EB0110D0F8B801CF
:100B60000199087004980068039900EB0110D0F80F
:100B7000B801000A0199487004980068039900EBD5
:100B80000110D0F8B801000C019988700498006831
:100B9000039900EB0110D0F8B801000E0199C8705C
:100BA00004980068039900EB0110D0F8BC0101998A
:100BB000087104980068039900EB0110D0F8BC019B
:100BC000000A0199487104980068039900EB01102C
:100BD000D0F8BC01000C0199887104980068039951
:100BE00000EB0110D0F8BC01000E0199C871039808
:100BF00038B9FFE704980168C86840F02000C86071
:100C000006E004980168086940F020000861FFE7E9
:100C100000208DF8170008E00499486A40F480200D
:100C2000486201208DF81700FFE79DF8170006B015
:100C30007047000080B58AB009900020089009989C
:100C40000068406907900998006840680690099814
:100C500000688068059009980068C0680490099849
:100C600000680069039009980068806902909DF807
:100C70001C00C007002800F09480FFE79DF81400D6
:100C8000C00758B3FFE709980168012088609DF804
:100C900014008007002804D5FFE7099800F088FCBD
:100CA0001BE09DF814004007002805D5FFE70898D1
:100CB00040F4006008900FE09DF814000007002841
:100CC00005D5FFE7089840F48050089003E00998A4
:100CD00000F06AFCFFE7FFE7FFE7FFE79DF815007C
:100CE000C00760B3FFE7099801684FF4807088601F
:100CF0009DF815008007002804D5FFE7099800F04B
:100D00005FFC1BE09DF815004007002805D5FFE7B4
:100D1000089840F4005008900FE09DF81500000777
:100D2000002805D5FFE7089840F48040089003E0CC
:100D3000099800F041FCFFE7FFE7FFE7FFE79DF8B8
:100D40001600C00760B3FFE7099801684FF48030D0
:100D500088609DF816008007002804D5FFE70998F1
:100D600000F036FC1BE09DF816004007002805D572
:100D7000FFE7089840F4004008900FE09DF8160047
:100D80000007002805D5FFE7089840F48030089058
:100D900003E0099800F018FCFFE7FFE7FFE7FFE733
:100DA000FFE79DF81C000007002810D5FFE79DF81D
:100DB0001000C006002809D5FFE7089840F400702D
:100DC0000890099801681020C860FFE7FFE79DF8C8
:100DD0001C00400700280FD5FFE79DF81000000712
:100DE000002808D5FFE7099801680820C86009981D
:100DF00000F0DEFAFFE7FFE79DF81C0080070028FF
:100E00000BD5FFE709980068C068800720B1FFE7AD
:100E1000099800F0D1FAFFE7FFE79DF81C004006B3
:100E2000002810D5FFE79DF80C00C006002809D562
:100E3000FFE7089840F48060089009980168102046
:100E40000861FFE7FFE79DF81C00800600280FD52A
:100E5000FFE79DF80C000007002808D5FFE7099878
:100E6000016808200861099800F04CFBFFE7FFE7E4
:100E70009DF81C00C00600280BD5FFE70998006804
:100E80000069800720B1FFE7099800F03FFBFFE70A
:100E9000FFE79DF81E00800700280FD5FFE79DF8AB
:100EA0001800C006002808D5FFE70998016810203F
:100EB0004860099800F02EFBFFE7FFE79DF81E0051
:100EC000C00778B1FFE79DF818000007002808D593
:100ED000FFE70998016808204860099800F07CFB4A
:100EE000FFE7FFE79DF81D000006002840F18D8018
:100EF000FFE79DF818004007002840F18180FFE7D8
:100F00009DF81D00C00750B1FFE79DF80800C0071D
:100F100028B1FFE7089840F001000890FFE79DF82E
:100F20001D00800700280BD5FFE79DF8080080070B
:100F3000002805D5FFE7089840F002000890FFE779
:100F40009DF81D00400700280BD5FFE79DF808001D
:100F50004007002805D5FFE7089840F004000890F6
:100F6000FFE79DF81D000007002848D5FFE79DF822
:100F7000080010F0700F42D0FFE7029800F07000F8
:100F800001460191102814D0FFE70198202815D0C0
:100F9000FFE70198302816D0FFE70198402817D0C6
:100FA000FFE70198502818D0FFE70198602819D072
:100FB0001DE0089840F00800089019E0089840F0FB
:100FC0001000089014E0089840F0200008900FE00E
:100FD000089840F0400008900AE0089840F080002F
:100FE000089005E0089840F48070089000E0FFE762
:100FF00009980168886920F070008861FFE7FFE7C1
:101000000998016804204860FFE7089848B1FFE7A5
:10101000089A0999486A104348620998FFF7FCFC4E
:10102000FFE70AB080BD000080B584B0029002984E
:1010300020B9FFE701208DF80F00E0E0029890F85A
:10104000200020B9FFE7029800F0DEF8FFE70298E1
:101050000168086840F00100086001F05FF8019045
:10106000FFE7029800684068C007A8B9FFE701F0F1
:1010700055F80199401A0B280DD3FFE70299486AE9
:1010800040F4003048620299052081F820000120D8
:101090008DF80F00B3E0E4E702980168086820F0DB
:1010A0000200086001F03AF80190FFE7029800683A
:1010B00040688007002815D5FFE701F02FF8019957
:1010C000401A0B280DD3FFE70299486A40F400301C
:1010D00048620299052081F8200001208DF80F0058
:1010E0008DE0E3E70298007E012807D1FFE7029830
:1010F0000168086840F08000086006E00298016816
:10110000086820F080000860FFE70298407E012810
:1011100007D1FFE702980168086840F040000860C6
:1011200006E002980168086820F040000860FFE7C8
:101130000298807E012807D1FFE7029801680868BD
:1011400040F02000086006E002980168086820F07E
:1011500020000860FFE70298C07E012807D1FFE762
:1011600002980168086820F01000086006E0029804
:101170000168086840F010000860FFE70298007FEF
:10118000012807D1FFE702980168086840F00800CD
:10119000086006E002980168086820F0080008600E
:1011A000FFE70298407F012807D1FFE70298016816
:1011B000086840F00400086006E0029801680868CA
:1011C00020F004000860FFE7029B19685A689868DD
:1011D000D3F80CC040EA0C00D3F810C040EA0C0071
:1011E0005B691843013A1043C861029900204862C4
:1011F000029A012182F820108DF80F00FFE79DF878
:101200000F0004B080BD000080B592B011900020A6
:1012100010900F900E900D900C901198006846F26F
:101220000041C4F20001884252D1FFE740F274004D
:10123000C2F200000168013101600068012812D18A
:10124000FFE7FFE700200B9043F64000C4F20200E6
:10125000016841F000710160006800F000700B90BF
:101260000B98FFE7FFE7FFE700200A9043F6300006
:10127000C4F20200016841F008010160006800F05A
:1012800008000A900A98FFE703200C9002210D91B4
:10129000002105910E910F900920109040F600401A
:1012A000C4F202000CA900F031FD059A142004904C
:1012B000114600F0CBFF049800F0BEFF059A152000
:1012C0000690114600F0C2FF069800F0B5FF6DE0F1
:1012D0001198006846F60001C4F20001884264D10A
:1012E000FFE7FFE70020099043F64000C4F2020048
:1012F000016841F080610160006800F08060099041
:101300000998FFE740F27400C2F200000168013161
:1013100001600068012812D1FFE7FFE70020089074
:1013200043F64000C4F20200016841F00071016020
:10133000006800F0007008900898FFE7FFE7FFE7FB
:101340000020079043F63000C4F20200016841F02B
:1013500002010160006800F0020007900798FFE7B3
:1013600060200C9002200D90002002900E9003202F
:101370000F900920109040F20040C4F202000CA926
:1013800000F0C4FC029A40200190114600F05EFF7C
:10139000019800F051FF029A41200390114600F09D
:1013A00055FF039800F048FFFFE7FFE712B080BD4C
:1013B00081B0009001B0704780B58AB0099009985B
:1013C000002102AA6B46FFF72BFB0298A0F2012036
:1013D00006283FD8FFE70298013840F27002C2F2B7
:1013E00000021070107800EB800040F21431C2F25D
:1013F000000101EB400331F8100018819DF8003026
:101400009DF8010040EA0320137803EB830321F8E1
:1014100013009DF802309DF8030040EA0320137882
:1014200003EB830301EB430358809DF804309DF8E0
:10143000050040EA0320137803EB830301EB430329
:1014400098809DF80600127802EB820201EB4201BF
:10145000887100E0FFE70298A0F20120032837D846
:10146000FFE70298013840F27102C2F200021070E8
:1014700092F800C00CEB8C0140F21430C2F2000074
:1014800030F8113040F25A31C2F2000121F83C30FC
:1014900092F800C00CEB8C0300EB43035B8801EB7C
:1014A000CC0CACF8023092F800C00CEB8C0300EBD3
:1014B00043039B8801EBCC0CACF80430127802EBB0
:1014C000820300EB4300807901EBC2018871FFE7E2
:1014D00040F2B001C2F20001AA200870BB2048709F
:1014E00040F25A30C2F2000002888A704278CA7014
:1014F00042880A71C2784A7182888A714079C871BB
:101500000AB080BD81B0009001B0704781B00090FA
:1015100001B0704781B0009001B0704780B584B0D1
:101520000290029890F8200001282FD1FFE702993D
:10153000022081F8200002980168086820F001006C
:10154000086000F0EBFD0190FFE70298006840683A
:10155000C007A8B1FFE700F0E1FD0199401A0B2890
:101560000DD3FFE70299486A40F4003048620299BF
:10157000052081F8200001208DF80F000FE0E4E73E
:101580000299002048628DF80F0008E00299486A2D
:1015900040F40020486201208DF80F00FFE79DF81D
:1015A0000F0004B080BD000081B0009001B0704712
:1015B00081B0009001B0704781B0009001B07047D9
:1015C00081B0009001B0704781B0009001B07047C9
:1015D00081B0009001B0704781B0009001B07047B9
:1015E00080B584B002900298806D019000F096FD65
:1015F0000090029890F8350002280DD0FFE702997C
:1016000080204865FFE70299002081F83400FFE759
:1016100001208DF80F0055E002980168086820F05D
:101620001600086002980168486920F0800048614F
:101630000298006C20B9FFE70298806C38B1FFE790
:1016400002980168086820F008000860FFE7029827
:101650000168086820F001000860FFE70298006850
:101660000068C007C8B1FFE700F058FD0099401AB4
:10167000062811D3FFE7029920204865029903202C
:1016800081F83500FFE70299002081F83400FFE778
:1016900003208DF80F0015E0E0E70298C16D3F20B0
:1016A0008840019988600299012081F83500FFE7A0
:1016B0000299002081F83400FFE7FFE700208DF851
:1016C0000F00FFE79DF80F0004B080BD82B00090CE
:1016D000009890F83500022807D0FFE70099802095
:1016E000486501208DF807000EE00099052081F87B
:1016F000350000980168086820F001000860FFE7E5
:1017000000208DF80700FFE79DF8070002B0704742
:1017100080B586B005900020039040F20000C2F230
:101720000000006848F2B511C1F64E31A0FB01106F
:10173000800A02900598806D0190019800680490DD
:1017400004980599C96DC840000700281AD5FFE71D
:101750000598006800684007002812D5FFE7059843
:101760000168086820F0040008600598C16D082031
:101770008840019988600599486D40F001004865EE
:10178000FFE7FFE704980599C96DC840C007A0B1FD
:10179000FFE7059800684069000600280CD5FFE7C0
:1017A0000598C16D01208840019988600599486DB0
:1017B00040F002004865FFE7FFE704980599C96D0E
:1017C000C8404007002814D5FFE705980068006866
:1017D000800700280CD5FFE70598C16D04208840DC
:1017E000019988600599486D40F004004865FFE75D
:1017F000FFE704980599C96DC840C006002847D581
:10180000FFE7059800680068000700283FD5FFE75C
:101810000598C16D1020884001998860059800687E
:101820000068400300281AD5FFE7059800680068A3
:101830000003002809D4FFE70598006C20B1FFE7FA
:101840000598016C8847FFE708E00598806C20B197
:10185000FFE70598816C8847FFE7FFE716E00598EA
:1018600000680068C005002807D4FFE705980168F4
:10187000086820F008000860FFE70598006C20B1B8
:10188000FFE70598016C8847FFE7FFE7FFE7FFE701
:1018900004980599C96DC8408006002840F18D80E4
:1018A000FFE7059800680068C006002840F18480C2
:1018B000FFE70598C16D2020884001998860059850
:1018C00090F83500052834D1FFE7059801680868CD
:1018D00020F01600086005980168486920F0800033
:1018E00048610598006C20B9FFE70598806C38B115
:1018F000FFE705980168086820F008000860FFE726
:101900000598C16D3F2088400199886005990120A4
:1019100081F83500FFE70599002081F83400FFE7E2
:101920000598006D20B1FFE70598016D8847FFE736
:101930007BE0059800680068400300281AD5FFE79F
:101940000598006800680003002809D4FFE705989F
:10195000406C20B1FFE70598416C8847FFE708E03D
:101960000598C06B20B1FFE70598C16B8847FFE77A
:10197000FFE720E0059800680068C005002811D442
:10198000FFE705980168086820F0100008600599D5
:10199000012081F83500FFE70599002081F8340027
:1019A000FFE7FFE70598C06B20B1FFE70598C16B23
:1019B0008847FFE7FFE7FFE7FFE70598406DA0B323
:1019C000FFE70598406DC00730B3FFE70599052094
:1019D00081F8350005980168086820F0010008606A
:1019E000FFE70398013003900299884201D9FFE78D
:1019F00007E0FFE7059800680068C0070028F0D1FD
:101A0000FFE70599012081F83500FFE705990020DF
:101A100081F83400FFE7FFE70598C06C20B1FFE7CD
:101A20000598C16C8847FFE7FFE706B080BD00005E
:101A300080B586B004900020039000F06FFB029008
:101A4000049820B9FFE701208DF81700A3E004985F
:101A5000406A08B1FFE7FFE70499022081F83500EA
:101A6000FFE70499002081F83400FFE7049801683B
:101A7000086820F001000860FFE70498006800682B
:101A8000C00790B1FFE700F049FB0299401A062811
:101A90000AD3FFE70499202048650499032081F8C0
:101AA00035008DF8170076E0E7E7049800680068D5
:101AB0000390039848F23F01CFF2100108400390D1
:101AC000049900914868D1F808C0CB680A6940EAD7
:101AD0000C00184310434A6910438A691043CA69CD
:101AE0001043096A01430398084303900498406A2D
:101AF000042808D1FFE70499C86A096B01430398D9
:101B000008430390FFE70398049909680860049864
:101B1000006840690390039820F007000390049840
:101B2000416A0398084303900498406A04281AD134
:101B3000FFE70498816A0398084303900498C06AF9
:101B400080B1FFE70498FEF715FD50B1FFE7049957
:101B5000402048650499012081F835008DF8170070
:101B600019E0FFE7FFE703980499096848610498C2
:101B7000FEF7D4FC01900498C16D3F208840019984
:101B80008860049900204865049A012182F8351084
:101B90008DF81700FFE79DF8170006B080BD000024
:101BA00080B588B0069005910492039300208DF8CB
:101BB0000B000698806D0190FFE7069890F83400BE
:101BC000012804D1FFE702208DF81F0045E00699A7
:101BD000012081F83400FFE7FFE7069890F8350010
:101BE00001282BD1FFE70699022081F835000699DC
:101BF0000020486506980599049A039BFEF732FD7C
:101C00000698C16D3F208840019988600698016858
:101C1000086840F0160008600698006C38B1FFE7CD
:101C200006980168086840F008000860FFE7069819
:101C30000168086840F00100086009E0FFE70699C4
:101C4000002081F83400FFE702208DF80B00FFE749
:101C50009DF80B008DF81F00FFE79DF81F0008B0EE
:101C600080BD000080B584B0039000F057FA029068
:101C7000039801900198013048B1FFE740F2040059
:101C8000C2F200000178019808440190FFE7FFE7E5
:101C900000F044FA0299401A0199884201D2FFE704
:101CA000F6E704B080BD000081B0ADF80200BDF8D9
:101CB000020001280AD1FFE740F2E001C2F2000170
:101CC0000878013000F00100087000E0FFE701B083
:101CD0007047000080B582B0ADF8060043F61440AE
:101CE000C4F201000068BDF8061008420CD0FFE7FE
:101CF000BDF8060043F61441C4F201010860BDF8C6
:101D00000600FFF7D1FFFFE702B080BD8EB00D9057
:101D10000C9100200A90099008900B90FFE70B9817
:101D20000F2800F2CC81FFE70B99012088400A9030
:101D30000C9800680A990840099009980A99884205
:101D400040F0B881FFE70C98406800F003000128DC
:101D500007D0FFE70C98406800F0030002282FD15D
:101D6000FFE70D98806808900B984100032000FA67
:101D700001F10898884308900C98C0680B994900B5
:101D800000FA01F108980843089008980D998860B6
:101D90000D98406808900B99012000FA01F108980D
:101DA000884308900C984068C0F300100B9900FA23
:101DB00001F108980843089008980D994860FFE7DA
:101DC0000C98406800F00300032818D0FFE70D9836
:101DD000C06808900B984100032000FA01F10898B0
:101DE000884308900C9880680B99490000FA01F12B
:101DF00008980843089008980D99C860FFE70C9868
:101E0000406800F00300022826D1FFE70D980B99E7
:101E10006FF0030202EA51010844006A08900B982F
:101E200000F0070081000F2000FA01F108988843B4
:101E300008900C9800690B9901F00701890000FADD
:101E400001F108980843089008980D990B9B02EA45
:101E5000530211440862FFE70D98006808900B9840
:101E60004100032000FA01F10898884308900C987B
:101E7000406800F003000B99490000FA01F108984E
:101E80000843089008980D9908600C98807980079D
:101E9000002800F00E81FFE7FFE70020079043F6DF
:101EA0004400C4F20200016841F48041016000680E
:101EB00000F4804007900798FFE70B9820F003009C
:101EC00043F60801C4F20101405808900B9800F055
:101ED000030081000F2000FA01F108988843089060
:101EE0000D980021C4F20201884203D1FFE70020CF
:101EF00006905EE00D9840F20041C4F20201884273
:101F000003D1FFE70120059050E00D9840F6000155
:101F1000C4F20201884203D1FFE70220049042E0AC
:101F20000D9840F60041C4F20201884203D1FFE758
:101F30000320039034E00D9841F20001C4F2020145
:101F4000884203D1FFE70420029026E00D9841F279
:101F50000041C4F20201884203D1FFE7052001904D
:101F600018E00D9841F60001C4F20201884203D145
:101F7000FFE7062000900AE00D9941F60042C4F206
:101F800002020820914208BF07200090FFE7009856
:101F90000190FFE701980290FFE702980390FFE7A6
:101FA00003980490FFE704980590FFE705980690D2
:101FB000FFE70698C0B20B9901F00301890000FA0F
:101FC00001F108980843089008980B9921F0030143
:101FD00043F60802C4F20102885043F60840C4F2F6
:101FE00001000068089009990898884308900C98A7
:101FF0008079C006002805D5FFE7099908980843AD
:102000000890FFE7089843F60841C4F20101086010
:1020100043F60C40C4F20100006808900999089842
:10202000884308900C9880798006002805D5FFE742
:102030000999089808430890FFE7089843F60C416F
:10204000C4F20101086043F60440C4F201000068D4
:10205000089009990898884308900C98807980071F
:10206000002805D5FFE70999089808430890FFE77D
:10207000089843F60441C4F20101086043F60040A9
:10208000C4F20100006808900999089888430890F4
:102090000C988079C00728B1FFE709990898084390
:1020A0000890FFE7089843F60041C4F20101086078
:1020B000FFE7FFE7FFE70B9801300B902FE60EB02C
:1020C0007047000083B00290ADF806100298406996
:1020D0000090009ABDF8060002EA0001904340EA31
:1020E00001400299886103B07047000082B00190FE
:1020F000ADF802108DF801209DF8010028B1FFE72E
:10210000BDF802000199886105E0BDF802000004F5
:1021100001998861FFE702B07047000040F2883003
:10212000C2F200000068704740F20400C2F20000F2
:10213000027840F28831C2F2000108681044086059
:102140007047000080B543F60041C4F20201086800
:1021500040F400700860086840F480600860086817
:1021600040F480700860032000F08AF80F2000F02F
:1021700005F800F03BF8002080BD000080B582B07B
:10218000009040F20000C2F20000006840F204013A
:10219000C2F200010A784FF47A71B1FBF2F1B0FBA0
:1021A000F1F000F0A5FD20B1FFE701208DF8070058
:1021B00018E000980F280DD8FFE700994FF0FF3086
:1021C000002200F043F8009840F20801C2F200013A
:1021D000086003E001208DF8070003E000208DF87F
:1021E0000700FFE79DF8070002B080BD82B0FFE75F
:1021F0000020019043F64400C4F20200016841F45B
:1022000080410160006800F4804001900198FFE780
:10221000FFE70020009043F64000C4F2020001688E
:1022200041F080510160006800F0805000900098FB
:10223000FFE702B07047000080B582B08DF807005C
:102240009DF9070002F0CAFD02B080BD80B586B0DE
:102250008DF81700049103920020029002F0D6FD41
:1022600002909DF91700019002980499039A01F0D9
:102270008BFF0146019802F0D1FD06B080BD000041
:1022800080B582B00190019802F0EAFD02B080BDF5
:1022900080B584B002900191029820B9FFE7012037
:1022A0008DF80F0021E1019843F60041C4F20201CC
:1022B000096801F00701884212D9FFE7019943F646
:1022C0000040C4F202000170006800F007000199AC
:1022D000884204D0FFE701208DF80F0005E1FFE7F9
:1022E00002980078800700282AD5FFE70298007836
:1022F0004007002809D5FFE743F60801C4F20201B0
:10230000086840F4E0500860FFE702980078000792
:10231000002809D5FFE743F60801C4F20201086866
:1023200040F460400860FFE743F60801C4F2020190
:10233000086820F0F000029A926810430860FFE7F6
:1023400002980078C00700286ED0FFE70298406826
:10235000012811D1FFE743F60000C4F20200006833
:1023600000F400310020B0EB514F04D1FFE7012011
:102370008DF80F00B9E02CE002984068022805D0E3
:10238000FFE702984068032811D1FFE743F60000F9
:10239000C4F20200006800F000710020B0EB516F41
:1023A00004D1FFE701208DF80F009EE010E043F616
:1023B0000000C4F20200006800F002010020B0EB4F
:1023C000510F04D1FFE701208DF80F008DE0FFE7EA
:1023D000FFE743F60801C4F20201086820F0030099
:1023E000029A526810430860FFF798FE0090FFE7DA
:1023F00043F60800C4F20200006800F00C000299E5
:102400004968B0EB810F0ED0FFE7FFF787FE009918
:10241000401A41F28931884204D3FFE703208DF846
:102420000F0062E0E4E7FFE7019843F60041C4F2E1
:102430000201096801F00701884212D2FFE7019901
:1024400043F60040C4F202000170006800F007008B
:102450000199884204D0FFE701208DF80F0044E085
:10246000FFE702980078400700280CD5FFE743F605
:102470000801C4F20201086820F4E050029AD26810
:1024800010430860FFE702980078000700280DD588
:10249000FFE743F60801C4F20201086820F4604037
:1024A000029A126940EAC2000860FFE700F04CF8A7
:1024B00043F60801C4F202010968C9B20A0946F2EA
:1024C0003851C0F60001895CC84040F20001C2F2F8
:1024D0000001086040F20800C2F200000068FFF747
:1024E0004DFE00208DF80F00FFE79DF80F0004B0AF
:1024F00080BD000040F20000C2F20000006870479A
:1025000080B5FFF7F7FF43F60801C4F2020109683E
:10251000C1F3822246F24851C0F60001895CC840EE
:1025200080BD000080B5FFF7E5FF43F60801C4F267
:102530000201096889B24A0B46F24851C0F600010F
:10254000895CC84080BD000080B586B00020059041
:1025500004900390029043F60800C4F20200006861
:1025600000F00C000146019140B1FFE701980428FA
:102570000AD0FFE7019808280CD04FE042F2004053
:10258000C0F2F40002904FE041F60030C0F2B70014
:10259000029049E043F60400C4F20200016801F031
:1025A0003F01059100684002002813D5FFE743F67C
:1025B0000400C4F202000068C0F3881041F6003144
:1025C000C0F2B701A0FB0101059A0023FDF74CFE04
:1025D000049012E043F60400C4F202000068C0F365
:1025E000881042F20041C0F2F401A0FB0101059AFB
:1025F0000023FDF739FE0490FFE743F60400C4F220
:102600000200006800F44031022000EBD13003905A
:1026100004980399B0FBF1F0029005E042F200400B
:10262000C0F2F4000290FFE7029806B080BD0000FF
:1026300080B586B00490049820B9FFE701208DF89A
:10264000170050E304980078C007002800F0A58028
:10265000FFE743F60800C4F20200006800F00C0037
:10266000042813D0FFE743F60800C4F20200006814
:1026700000F00C0008281ED1FFE743F60400C4F266
:10268000020000684002002815D5FFE743F600006D
:10269000C4F20200006800F400310020B0EB514F9A
:1026A00008D0FFE70498406820B9FFE701208DF8C3
:1026B000170018E370E0FFE704984068B0F5803F2A
:1026C00009D1FFE743F60001C4F20201086840F4B3
:1026D0008030086020E004984068B0F5A02F0DD14C
:1026E000FFE743F60001C4F20201086840F48020CD
:1026F0000860086840F4803008600CE043F6000190
:10270000C4F20201086820F480300860086820F4F0
:1027100080200860FFE7FFE7FFE704984068E8B122
:10272000FFE7FFF7FBFC0390FFE743F60000C4F26E
:102730000200006800F400310020B0EB514F0CD1D2
:10274000FFE7FFF7EBFC0399401A652804D3FFE786
:1027500003208DF81700C6E2E7E71CE0FFF7DEFC78
:102760000390FFE743F60000C4F20200006800F4A3
:1027700000310020B0EB514F0CD0FFE7FFF7CEFC4B
:102780000399401A652804D3FFE703208DF817004A
:10279000A9E2E7E7FFE7FFE7FFE704980078800793
:1027A000002840F19680FFE743F60800C4F20200DB
:1027B000006810F00C0F13D0FFE743F60800C4F2D6
:1027C0000200006800F00C0008282CD1FFE743F657
:1027D0000400C4F2020000684002002823D4FFE78E
:1027E00043F60000C4F20200006800F0020100207D
:1027F000B0EB510F09D0FFE70498C068012804D05E
:10280000FFE701208DF817006DE243F60001C4F2E6
:102810000201086820F0F800049A126940EAC20038
:102820000860FFE754E00498C06870B3FFE7002138
:10283000C4F2472101200860FFF770FC0390FFE716
:1028400043F60000C4F20200006800F0020100201C
:10285000B0EB510F0CD1FFE7FFF760FC0399401A72
:10286000032804D3FFE703208DF817003BE2E7E7D6
:1028700043F60001C4F20201086820F0F800049A4F
:10288000126940EAC200086021E00021C4F2472139
:1028900000200860FFF742FC0390FFE743F60000CA
:1028A000C4F20200006800F002010020B0EB510FFA
:1028B0000CD0FFE7FFF732FC0399401A032804D33A
:1028C000FFE703208DF817000DE2E7E7FFE7FFE7DA
:1028D000FFE704980078000700284BD5FFE704982D
:1028E000406918B3FFE740F68061C4F24721012038
:1028F0000860FFF713FC0390FFE743F67400C4F28F
:102900000200006800F002010020B0EB510F0CD172
:10291000FFE7FFF703FC0399401A032804D3FFE7FE
:1029200003208DF81700DEE1E7E722E040F6806142
:10293000C4F2472100200860FFF7F0FB0390FFE797
:1029400043F67400C4F20200006800F002010020A7
:10295000B0EB510F0CD0FFE7FFF7E0FB0399401AF3
:10296000032804D3FFE703208DF81700BBE1E7E756
:10297000FFE7FFE7049800784007002840F1CE8089
:10298000FFE700208DF8070043F64000C4F2020084
:102990000068C000002815D4FFE7FFE70020009082
:1029A00043F64000C4F20200016841F0805101602A
:1029B000006800F0805000900098FFE701208DF83B
:1029C0000700FFE747F20000C4F200000068C005FE
:1029D000002822D4FFE747F20001C4F20001086892
:1029E00040F480700860FFF799FB0390FFE747F21F
:1029F0000000C4F200000068C00500280CD4FFE706
:102A0000FFF78CFB0399401A032804D3FFE7032048
:102A10008DF8170067E1EAE7FFE7FFE704988068B1
:102A2000012809D1FFE743F67001C4F202010868EA
:102A300040F0010008601FE00498806805280DD16F
:102A4000FFE743F67001C4F20201086840F0040099
:102A50000860086840F0010008600CE043F670016F
:102A6000C4F20201086820F001000860086820F044
:102A700004000860FFE7FFE7FFE704988068F8B10B
:102A8000FFE7FFF74BFB0390FFE743F67000C4F24C
:102A90000200006800F002010020B0EB510F0ED1DF
:102AA000FFE7FFF73BFB0399401A41F28931884267
:102AB00004D3FFE703208DF8170014E1E5E71EE0DB
:102AC000FFF72CFB0390FFE743F67000C4F202000F
:102AD000006800F002010020B0EB510F0ED0FFE7BC
:102AE000FFF71CFB0399401A41F28931884204D355
:102AF000FFE703208DF81700F5E0E5E7FFE79DF815
:102B00000700012809D1FFE743F64001C4F20201A2
:102B1000086820F080500860FFE7FFE704988069AC
:102B2000002800F0DC80FFE743F60800C4F2020052
:102B3000006800F00C00082800F08580FFE704988A
:102B4000806902285CD1FFE76021C4F247210020A0
:102B50000860FFF7E3FA0390FFE743F60000C4F2D2
:102B60000200006800F000710020B0EB516F0CD043
:102B7000FFE7FFF7D3FA0399401A032804D3FFE7CE
:102B800003208DF81700AEE0E7E70499C869D1F893
:102B900020C04B6A8A6A40EA0C0040EA8310D203E4
:102BA0004FF6FF739A43A2F580321043C96A40EA98
:102BB000016043F60401C4F2020108606021C4F21E
:102BC000472101200860FFF7A9FA0390FFE743F6C9
:102BD0000000C4F20200006800F000710020B0EBB9
:102BE000516F0CD1FFE7FFF799FA0399401A0328B8
:102BF00004D3FFE703208DF8170074E0E7E721E036
:102C00006021C4F2472100200860FFF787FA039093
:102C1000FFE743F60000C4F20200006800F0007114
:102C20000020B0EB516F0CD0FFE7FFF777FA039964
:102C3000401A032804D3FFE703208DF8170052E061
:102C4000E7E7FFE74AE004988069012804D1FFE73D
:102C500001208DF8170046E043F60400C4F202009C
:102C60000068029004988069012831D0FFE702983B
:102C700000F480000499C969884229D1FFE70298CD
:102C800000F03F000499096A884221D1FFE70298C9
:102C900047F6C07108400499496AB0EB811F17D10B
:102CA000FFE7029800F440300499896AC9034FF69F
:102CB000FF729143A1F58031884209D1FFE7029864
:102CC00000F070600499C96AB0EB016F04D0FFE7AF
:102CD00001208DF8170006E0FFE7FFE7FFE700207F
:102CE0008DF81700FFE79DF8170006B080BD0000C3
:102CF00080B582B00190019801F0B8FB02B080BDB0
:102D000081B0009001B0704781B0009001B0704771
:102D100085B003900291FFE7039890F83C000128EA
:102D200004D1FFE702208DF813007EE00399012013
:102D300081F83C00FFE7FFE70399022081F83D009E
:102D400003980068406801900398006880680090CC
:102D5000019820F0700001900298016801980843E2
:102D60000190019803990968486003980068002160
:102D7000C4F2010188423CD0FFE703980068B0F13B
:102D8000804F36D0FFE70398006840F20041C4F25C
:102D9000000188422DD0FFE70398006840F600014B
:102DA000C4F20001884224D0FFE70398006840F68F
:102DB0000041C4F2000188421BD0FFE7039800687D
:102DC00040F20041C4F20101884212D0FFE70398AB
:102DD000006844F20001C4F20101884209D0FFE713
:102DE0000398006841F60001C4F2000188420ED148
:102DF000FFE7009820F0800000900298416800985A
:102E0000084300900098039909688860FFE70399D8
:102E1000012081F83D00FFE70399002081F83C0084
:102E2000FFE700208DF81300FFE79DF8130005B0C1
:102E30007047000080B582B00090009820B9FFE78D
:102E400001208DF807003FE0009890F83D0040B960
:102E5000FFE70099002081F83C00009800F038F866
:102E6000FFE70099022081F83D00009951F8040B1A
:102E700001F0AAFB0099012081F84600FFE70099C4
:102E8000012081F83E00009981F83F00009981F807
:102E90004000009981F84100FFE7FFE70099012019
:102EA00081F84200009981F84300009981F84400BC
:102EB000009981F84500FFE70099012081F83D0065
:102EC00000208DF80700FFE79DF8070002B080BDE5
:102ED00080B588B00790079800680021C4F201010E
:102EE00088421BD1FFE7FFE70020069043F644002D
:102EF000C4F20200016841F001010160006800F0C5
:102F0000010006900698FFE7192003900022114661
:102F1000FFF79CF90398FFF78FF946E007980068E0
:102F2000B0F1804F1BD1FFE7FFE70020059043F68B
:102F30004000C4F20200016841F001010160006834
:102F400000F0010005900598FFE71C200290002288
:102F50001146FFF77BF90298FFF76EF924E0079816
:102F6000006840F20041C4F2000188421BD1FFE733
:102F7000FFE70020049043F64000C4F2020001681D
:102F800041F002010160006800F002000490049822
:102F9000FFE71D20019000221146FFF757F9019825
:102FA000FFF74AF9FFE7FFE7FFE708B080BD000041
:102FB00083B00190019890F83D00012804D0FFE70C
:102FC00001208DF80B006AE00199022081F83D0094
:102FD00001980168C86840F00100C8600198006865
:102FE0000021C4F2010188423CD0FFE7019800684B
:102FF000B0F1804F36D0FFE70198006840F2004101
:10300000C4F2000188422DD0FFE70198006840F625
:103010000001C4F20001884224D0FFE70198006853
:1030200040F60041C4F2000188421BD0FFE701983E
:10303000006840F20041C4F20101884212D0FFE76B
:103040000198006844F20001C4F20101884209D0ED
:10305000FFE70198006841F60001C4F200018842D0
:1030600012D1FFE701980068806800F00700009027
:103070000098062807D0FFE701980168086840F02B
:1030800001000860FFE706E001980168086840F069
:1030900001000860FFE700208DF80B00FFE79DF8B6
:1030A0000B0003B07047000080B586B00490039118
:1030B00000208DF80B00FFE7049890F83C000128F1
:1030C00004D1FFE702208DF81700ABE0049901203E
:1030D00081F83C00FFE7FFE70499022081F83D00FA
:1030E0000498006880680190019820F077000190B2
:1030F000019820F47F400190019804990968886044
:10310000039800680090002872D0FFE7009810280C
:103110006ED0FFE7009820286AD0FFE7009830289B
:1031200066D0FFE70098402855D0FFE70098502868
:1031300037D0FFE70098602840D0FFE7009870285C
:103140000BD0FFE70098B0F5805F05D0FFE700984F
:10315000B0F5005F16D052E055E004980068039B7C
:103160005A689968DB6801F001FB04980068806880
:103170000190019840F07700019001980499096846
:10318000886040E004980068039B5A689968DB688F
:1031900001F0ECFA04980168886840F48040886087
:1031A00031E004980068039A5168D26801F00EFB80
:1031B00004980068502101F0F3FA24E004980068B4
:1031C000039A5168D26801F029FB049800686021D5
:1031D00001F0E6FA17E004980068039A5168D26893
:1031E00001F0F4FA04980068402101F0D9FA0AE0ED
:1031F000049800680399096801F0D2FA03E00120FD
:103200008DF80B00FFE70499012081F83D00FFE7EE
:103210000499002081F83C00FFE79DF80B008DF831
:103220001700FFE79DF8170006B080BD81B0009041
:1032300001B0704780B584B0039003980068C068FF
:10324000029003980068006901909DF804008007CF
:10325000002824D5FFE79DF80800800700281DD529
:10326000FFE7039801686FF00200086103990120ED
:103270000877039800688069800720B1FFE703980A
:10328000FFF7D4FF06E0039800F0E2F8039800F09F
:10329000E3F8FFE7039900200877FFE7FFE79DF8D1
:1032A00004004007002825D5FFE79DF808004007E7
:1032B00000281ED5FFE7039801686FF0040008613D
:1032C00003990220087703980068806910F4407F12
:1032D00004D0FFE70398FFF7A9FF06E0039800F08A
:1032E000B7F8039800F0B8F8FFE7039900200877D3
:1032F000FFE7FFE79DF804000007002824D5FFE75B
:103300009DF80800000700281DD5FFE70398016815
:103310006FF008000861039904200877039800689B
:10332000C069800720B1FFE70398FFF77FFF06E041
:10333000039800F08DF8039800F08EF8FFE70399EA
:1033400000200877FFE7FFE79DF80400C00600288B
:1033500025D5FFE79DF80800C00600281ED5FFE729
:10336000039801686FF0100008610399082008773E
:1033700003980068C06910F4407F04D0FFE7039809
:10338000FFF754FF06E0039800F062F8039800F09E
:1033900063F8FFE7039900200877FFE7FFE79DF850
:1033A0000400C00778B1FFE79DF80800C00748B1E6
:1033B000FFE7039801686FF001000861039800F0CF
:1033C0004FF8FFE7FFE79DF804000006002810D53E
:1033D000FFE79DF808000006002809D5FFE70398DD
:1033E00001686FF0800008610398FFF789FCFFE730
:1033F000FFE79DF804004006002810D5FFE79DF880
:1034000008004006002809D5FFE7039801686FF01F
:1034100040000861039800F0EFF8FFE7FFE79DF830
:1034200004008006002810D5FFE79DF808008006FC
:10343000002809D5FFE7039801686FF020000861B4
:103440000398FFF761FCFFE7FFE704B080BD0000D1
:1034500081B0009001B0704781B0009001B070471A
:1034600080B58CB00B900B9800680021C4F201016C
:10347000884241D1FFE740F28030C2F2000000787C
:10348000C8BBFFE740F28430C2F2000090ED000AB2
:10349000BDEEC00A10EE102A40F2B001C2F20001E7
:1034A0000A7290ED000ABDEEC00A10EE100A000A82
:1034B000487201F025FD0A9001F028FDADF82600C4
:1034C0000A99BDF8262040F2CC20C2F200000390F9
:1034D00000F0CEFB03980A99BDF8262000F0C8FB47
:1034E00038B9FFE740F28031C2F2000101200870D4
:1034F00000E0FFE7FFE7FFE70B980068B0F1804FBF
:103500005CD1FFE741F60040C4F202004FF40061D5
:10351000FEF7D8FD40F27800C2F200000190F7EE0D
:10352000000A9FED301AB0EE600A00F06BFF002039
:1035300001F0EEFC01460198089108994988ADF820
:103540001E1040F28431C2F2000191ED000ABDF973
:103550001E1001EE101AF8EEC10ADFED231AB0EECC
:10356000611A00F047FE8DED060A40F29400C2F2A7
:1035700000000290B6EE000ADFED1C0A9FED1C1A57
:1035800000F058FF029808998988ADF816109DED53
:10359000060ABDF9161001EE101AF8EEC10A9FEDE9
:1035A000151AF2EE041A00F0A9FE8DED040A049833
:1035B00040F27C31C2F200010860FFE70B9800681E
:1035C00040F20041C4F20001884208D1FFE740F216
:1035D000DC01C2F20001086801300860FFE70CB0AE
:1035E00080BD00BFCDCCCC3D00007A44000000007F
:1035F000CDCC4C3D0000C84281B0009001B0704776
:1036000082B00190ADF8021002B0704781B0009016
:1036100001B0704780B592B01190119800680068B1
:10362000109011980068C0680F9011980068406968
:103630000E9000200D900C90109800F00F000D904F
:103640000D9888B9FFE79DF84000800600280AD54C
:10365000FFE79DF83C008006002804D5FFE711989D
:1036600001F016FA02E2FFE70D98002800F0C28090
:10367000FFE79DF83800C00738B9FFE7BDF83C0008
:1036800010F4907F00F0B680FFE79DF84000C0077F
:1036900058B1FFE79DF83D00C00730B1FFE7119931
:1036A000486C40F001004864FFE79DF84000400787
:1036B00000280BD5FFE79DF83800C00730B1FFE7C1
:1036C0001199486C40F002004864FFE79DF8400003
:1036D000800700280BD5FFE79DF83800C00730B100
:1036E000FFE71199486C40F004004864FFE79DF83B
:1036F00040000007002811D5FFE79DF83C00800638
:10370000002805D4FFE79DF83800C00730B1FFE777
:103710001199486C40F008004864FFE71198406C2C
:10372000002866D0FFE79DF84000800600280AD5F3
:10373000FFE79DF83C008006002804D5FFE71198BC
:1037400001F0A6F9FFE7119800684069C0F3801006
:103750000C901198406C0007002804D4FFE70C98E7
:1037600000283ED0FFE7119801F018F91198006881
:103770004069400600282FD5FFE7FFE7FFE71198D3
:10378000006850E8050F20F040000B90FFE70B9910
:103790001198026842E805100028F0D1FFE7FFE722
:1037A0001198C06B98B1FFE71198C16B44F6710096
:1037B000C0F6000008651198C06BFDF787FF28B1BF
:1037C000FFE71198C06B016D8847FFE703E0119890
:1037D000FFF71CFFFFE703E01198FFF717FFFFE774
:1037E00006E01198FFF712FF119900204864FFE7E7
:1037F000FFE73BE11198006B012840F01781FFE7DC
:103800009DF84000C006002840F11081FFE79DF8B8
:103810003C00C006002840F10981FFE7FFE70020D7
:103820000A901198006800680A9011980068406832
:103830000A900A98FFE7119800684069400600283E
:1038400040F19A80FFE71198C06B00684068ADF8BE
:103850002600BDF82600002875D0FFE7BDF8260039
:103860001199898D88426EDAFFE7BDF8260011991B
:10387000C8851198C06BC069B0F5807F58D0FFE74C
:10388000FFE7FFE71198006850E8030F20F480700D
:103890000890FFE708991198026842E80310002891
:1038A000F0D1FFE7FFE7FFE7FFE71198006850E876
:1038B000050F20F001000790FFE7079911980268B3
:1038C00042E805100028F0D1FFE7FFE7FFE7FFE738
:1038D0001198006850E8050F20F040000690FFE7BF
:1038E00006991198026842E805100028F0D1FFE718
:1038F000FFE71199202081F8420011990020086308
:10390000FFE7FFE71198006850E8030F20F0100070
:103910000590FFE705991198026842E80310002816
:10392000F0D1FFE7FFE71198C06BFDF759FEFFE705
:103930001199022048631198818DC28D891A89B22C
:10394000FFF75EFE17E0BDF826001199898D8842C9
:1039500010D1FFE71198C06BC069B0F5807F08D126
:10396000FFE71199022048631198818DFFF748FE07
:10397000FFE7FFE7FFE779E01199888DC98D401ACD
:10398000ADF812001198C08D00284ED0FFE7BDF8A9
:103990001200002849D0FFE7FFE7FFE71198006811
:1039A00050E8030F20F490700390FFE703991198FB
:1039B000026842E803100028F0D1FFE7FFE7FFE7C5
:1039C000FFE71198006850E8050F20F00100029011
:1039D000FFE702991198026842E805100028F0D12B
:1039E000FFE7FFE71199202081F84200119900209C
:1039F0000863FFE7FFE71198006850E8030F20F025
:103A000010000190FFE701991198026842E8031045
:103A10000028F0D1FFE7FFE71199022048631198D1
:103A2000BDF81210FFF7ECFDFFE71FE09DF8400026
:103A3000000600280AD5FFE79DF83C000006002894
:103A400004D5FFE7119801F075F90FE09DF84000EB
:103A5000400600280AD5FFE79DF83C0040060028F4
:103A600004D5FFE7119800F0E3FFFFE712B080BD37
:103A700080B582B00090009820B9FFE701208DF852
:103A8000070040E00098806908B1FFE700E0FFE729
:103A9000009890F8410040B9FFE70099002081F8B4
:103AA0004000009800F034F8FFE70099242081F8E6
:103AB000410000980168C86820F40050C860009870
:103AC00001F09AF800980168086920F490400861B4
:103AD00000980168486920F02A0048610098016850
:103AE000C86840F40050C860009900204864009AFB
:103AF000202182F84110009A82F842100099486310
:103B00008DF80700FFE79DF8070002B080BD0000B8
:103B100080B58CB00B9000200A9009900890079017
:103B200006900B98006841F20041C4F201018842FE
:103B300040F09780FFE7FFE70020059043F6440040
:103B4000C4F20200016841F020010160006800F049
:103B5000200005900598FFE7FFE70020049043F65A
:103B60003000C4F20200016841F0400101600068C9
:103B700000F0400004900498FFE74FF48440069062
:103B8000022007900020029008900320099008204E
:103B90000A9041F60000C4F2020006A9FEF7B6F84A
:103BA000029940F23410C2F20000039046F228421B
:103BB000C4F2020202604FF0206242608160C16084
:103BC0004FF48062026141618161C1614FF4403212
:103BD00002624162FDF72CFF18B1FFE7FCF772FDAE
:103BE000FFE7FFE70B9840F23411C2F20001C16316
:103BF0000B988863FFE740F29410C2F20000019036
:103C000046F2A041C4F2020101604FF02061416020
:103C1000402181600021C1604FF4806202614161F6
:103C20008161C1614FF4403202624162FDF700FFE1
:103C300018B1FFE7FCF746FDFFE7FFE70B9840F2FE
:103C40009411C2F2000181630B988863FFE747205B
:103C5000009000221146FEF7F9FA0098FEF7ECFA00
:103C6000FFE70CB080BD000081B0009001B070474C
:103C700080B586B004900391ADF80A20049890F8BE
:103C8000410020286AD1FFE7039820B1FFE7BDF883
:103C90000A0020B9FFE701208DF8170062E00398C1
:103CA00004990862BDF80A0004998884BDF80A00E6
:103CB0000499C884049900204864049A212182F858
:103CC000411004998A6B44F60911C0F60001D163D2
:103CD00004998A6B44F68511C0F6000111640499B9
:103CE0008A6B44F68D01C0F60001D1640499896B9A
:103CF000086503A8019004980268806B019909681F
:103D00000432BDF80A30FDF74BFF58B1FFE70499C4
:103D1000102048640499202081F8410001208DF88A
:103D200017001FE0049801686FF040000860FFE78B
:103D3000FFE70498006850E8050F40F0800000900D
:103D4000FFE700990498026842E805100028F0D1C6
:103D5000FFE7FFE700208DF8170003E002208DF851
:103D60001700FFE79DF8170006B080BD81B00090F6
:103D70000098006841F20041C4F20101884207D175
:103D8000FFE740F28031C2F2000100200870FFE737
:103D900001B0704781B0009001B07047FFE7FEE7C7
:103DA00080B582B040F2E400C2F20000009046F21A
:103DB0000041C4F200010160032141600021019132
:103DC0008160C1604FF4102202614FF40012426121
:103DD000017641768176C17601774177FDF724F946
:103DE00018B1FFE7FCF76EFCFFE702B080BD0000F2
:103DF00080B582B040F20C10C2F20000009046F68E
:103E00000001C4F200010160032141600021019121
:103E10008160C1604FF4102202614FF400124261D0
:103E2000017641768176C17601774177FDF7FCF81E
:103E300018B1FFE7FCF746FCFFE702B080BD0000C9
:103E400080B584B0FFE70020039043F63000C4F251
:103E50000200016841F480010160006800F4800004
:103E600003900398FFE73920009000220192114649
:103E7000FEF7ECF90098FEF7DFF9019A4520029071
:103E80001146FEF7E3F90298FEF7D6F904B080BDBB
:103E900080B590B000200F900E900D900C900B907C
:103EA000FFE700200A9043F63000C4F202000168E8
:103EB00041F002010160006800F002000A900A98D7
:103EC000FFE7FFE70020099043F63000C4F202004C
:103ED000016841F040010160006800F04000099075
:103EE0000998FFE7FFE70020089043F63000C4F28E
:103EF0000200016841F001010160006800F001006A
:103F000008900898FFE7FFE70020079043F630008D
:103F1000C4F20200016841F008010160006800F08D
:103F2000080007900798FFE7FFE70020069043F698
:103F30003000C4F20200016841F0800101600068B5
:103F400000F0800006900698FFE741F60040C4F2BA
:103F5000020001904FF4C051009100220492FEF73C
:103F6000C5F8009A019804990B92012202920C92D2
:103F70000D910E910BA90391FDF7C8FE02980399CC
:103F80000B904FF404120C920D900020C4F202002A
:103F9000FDF7BCFE049A062005901146FEF756F97F
:103FA0000598FEF749F910B080BD000080B588B0D3
:103FB00000210091079106910591049103910291CE
:103FC00040F2F410C2F2000001900022C4F201029B
:103FD000026044F29F124260816040F2E732C260A8
:103FE000016141618161FEF725FF18B1FFE7FCF730
:103FF00069FBFFE74FF48050049040F2F410C2F2E6
:10400000000004A9FFF750F818B1FFE7FCF75AFBCE
:10401000FFE700200290039040F2F410C2F200008B
:1040200002A9FEF775FE18B1FFE7FCF74BFBFFE7AF
:1040300008B080BD80B588B000210191079106913C
:10404000059104910391029140F23C20C2F20000DC
:104050004FF08042026040F28F624260816040F225
:10406000E732C26001618161FEF7E4FE18B1FFE74B
:10407000FCF728FBFFE74FF48050049040F23C200F
:10408000C2F2000004A9FFF70FF818B1FFE7FCF730
:1040900019FBFFE700200290039040F23C20C2F29F
:1040A000000002A9FEF734FE18B1FFE7FCF70AFB97
:1040B000FFE708B080BD000080B588B00021019105
:1040C00007910691059104910391029140F2842099
:1040D000C2F2000040F20042C4F20002026044F268
:1040E0009F124260816040F2E732C26001618161EB
:1040F000FEF7A0FE18B1FFE7FCF7E4FAFFE74FF484
:104100008050049040F28420C2F2000004A9FEF71F
:10411000CBFF18B1FFE7FCF7D5FAFFE700200290CC
:10412000039040F28420C2F2000002A9FEF7F0FDE5
:1041300018B1FFE7FCF7C6FAFFE708B080BD000042
:1041400080B582B040F2CC20C2F20000019041F272
:104150000041C4F2010101604FF4E13141600021EE
:104160008160C16001610C2242618161C161FFF720
:104170007FFC18B1FFE7FCF7A5FAFFE702B080BDAE
:10418000FFE7FEE7FFE7FEE788B00790069105929C
:10419000079800F0070004900498C0F10700052874
:1041A00003D3FFE70420019004E00498C0F1070066
:1041B0000190FFE70198039004980430062803D883
:1041C000FFE70020009003E0049803380090FFE729
:1041D0000098029006980399012202FA01F1013930
:1041E0000840029B984005999A40013A11400843C3
:1041F00008B0704787B006908DED050ACDED040A32
:104200008DED031ACDED021A9DED050A9DED041A00
:1042100030EE410A8DED010A9DED011A069890EDF0
:10422000040A30EE010A80ED040A9DED010A9DEDBD
:10423000021AB4EE410AF1EE10FA04DDFFE7069926
:104240000020086110E09DED010A9DED021AB1EE1B
:10425000411AB4EE410AF1EE10FA04DAFFE70699CA
:1042600000200861FFE7FFE7069890ED040A9DED46
:10427000031AB4EE410AF1EE10FA04DDFFE70398E9
:104280000699086115E0069890ED040A9DED031A61
:10429000B1EE411AB4EE410AF1EE10FA08DAFFE786
:1042A0009DED030AB1EE400A069880ED040AFFE78F
:1042B000FFE79DED010A069890ED031A30EE410AE2
:1042C0008DED000A01980699C86006989DED013AA7
:1042D00090ED001A90ED012A90ED020A90ED044A4B
:1042E00022EE042A21EE031A31EE021A9DED002A75
:1042F00020EE020A30EE010A07B0704787B0069040
:104300008DED050ACDED040A8DED031ACDED021AEF
:104310009DED050A9DED041A30EE410A8DED010A6E
:104320009DED011A069890ED040A30EE010A80ED29
:10433000040A9DED010A9DED021AB4EE410AF1EE68
:1043400010FA04DDFFE706990020086110E09DEDFA
:10435000010A9DED021AB1EE411AB4EE410AF1EEE6
:1043600010FA04DAFFE7069900200861FFE7FFE78B
:10437000069890ED040A9DED031AB4EE410AF1EEA1
:1043800010FA04DDFFE703980699086115E0069826
:1043900090ED040A9DED031AB1EE411AB4EE410A04
:1043A000F1EE10FA08DAFFE79DED030AB1EE400ADC
:1043B000069880ED040AFFE7FFE79DED010A0698E5
:1043C00090ED031A30EE410A8DED000A019806992E
:1043D000C86006989DED013A90ED001A90ED012A13
:1043E00090ED020A90ED044A22EE042A21EE031A0F
:1043F00031EE021A9DED002A20EE020A30EE010A8B
:1044000007B0704784B003908DED020ACDED010A2C
:104410008DED001A0298039908600198039948608D
:1044200000980399886003990020C8600399086187
:1044300004B0704784B003908DED020ACDED010AFF
:104440008DED001A0298039908600198039948605D
:1044500000980399886003990020C8600399086157
:1044600004B07047704700007047000080B582B00C
:10447000009000980138B0F1807F03D3FFE701205E
:10448000019019E0009801384EF21401CEF20001BB
:1044900008604FF0FF300F2100F0C0FC4EF2180111
:1044A000CEF20001002008604EF21002CEF20002AF
:1044B000072111600190FFE7019802B080BD000064
:1044C00080B5FDF731FE80BD80B594B008A83021DD
:1044D000FBF742FF002007900690059004900390A0
:1044E000FFE70020029043F64000C4F2020001689A
:1044F00041F080510160006800F080500290029805
:10450000FFE7FFE70020019047F20000C4F200003F
:10451000016841F480410160006800F4804001902E
:104520000198FFE7012008904FF4803009900220A5
:104530000E904FF480010F9106211091A821119146
:1045400012900420139008A8FEF772F818B1FFE744
:10455000FCF7B8F8FFE70F2003900220049000203A
:1045600005904FF4A05006904FF48050079003A898
:104570000521FDF78DFE18B1FFE7FCF7A3F8FFE773
:1045800014B080BD4EF68851CEF20001086840F4A8
:10459000700008607047000080B540F2F410C2F26D
:1045A0000000FEF747FE80BD80B540F23C20C2F21D
:1045B0000000FEF73FFE80BD80B540F28420C2F2CD
:1045C0000000FEF737FE80BD83B002900191029893
:1045D0000068009002980021C4F20101884225D0B1
:1045E000FFE70298B0F1804F20D0FFE7029840F239
:1045F0000041C4F20001884218D0FFE7029840F65B
:104600000001C4F20001884210D0FFE7029840F692
:104610000041C4F20001884208D0FFE7029840F24E
:104620000041C4F2010188420AD1FFE7009820F05E
:104630007000009001984168009808430090FFE7DF
:1046400002980021C4F20101884255D0FFE7029888
:10465000B0F1804F50D0FFE7029840F20041C4F221
:104660000001884248D0FFE7029840F60001C4F2FA
:104670000001884240D0FFE7029840F60041C4F2B2
:104680000001884238D0FFE7029840F20041C4F2AE
:104690000101884230D0FFE7029844F20001C4F2E1
:1046A0000101884228D0FFE7029844F20041C4F299
:1046B0000101884220D0FFE7029844F60001C4F2CD
:1046C0000101884218D0FFE7029841F60001C4F2C8
:1046D0000001884210D0FFE7029841F60041C4F281
:1046E0000001884208D0FFE7029842F20001C4F2BC
:1046F000000188420AD1FFE7009820F44070009042
:104700000198C168009808430090FFE7009820F0E6
:1047100080000199496908430090019880680299D6
:10472000C862019800680299886202980021C4F268
:104730000101884208D0FFE7029840F20041C4F22C
:104740000101884205D1FFE70198006902990863D9
:10475000FFE70299086840F0040008600299012010
:10476000486100980299086003B0704785B00490D2
:10477000039102920193049880680090009820F4BD
:104780007F40009003980299019A41EA0221014377
:1047900000980843009000980499886005B070471D
:1047A00083B002900191029880680090009820F0F8
:1047B0007000009001980099084340F007000090B5
:1047C00000980299886003B07047000085B004909B
:1047D000039102920498006A00900499086A20F0FC
:1047E00001000862049880690190019820F0F000AF
:1047F00001900299019840EA01100190009820F080
:104800000A000090039900980843009001980499C9
:10481000886100980499086205B0704785B00490DB
:10482000039102920498006A00900499086A20F0AB
:1048300010000862049880690190019820F470408B
:1048400001900299019840EA01300190009820F00F
:10485000A00000900399009840EA01100090019890
:104860000499886100980499086205B070470000B7
:1048700080B582B001900198806B00900099002073
:10488000C8850098FEF7C2FE02B080BD80B584B036
:104890000390002002900398806B019001980068BB
:1048A0004069C0B2C0090290019890F841002128E7
:1048B0000AD1FFE7029838B1FFE701990020C884C8
:1048C000019800F0C9F8FFE7019800684069C0F35B
:1048D00080100290019890F8420022280AD1FFE748
:1048E000029838B1FFE701990020C885019800F0CF
:1048F00055F8FFE70199486C40F0100048640198B2
:10490000FEF784FE04B080BD80B584B003900398A8
:10491000806B0290039800680068C00500282AD4C4
:10492000FFE702990020C884FFE7FFE702980068CC
:1049300050E8050F20F080000190FFE701990298F0
:10494000026842E805100028F0D1FFE7FFE7FFE723
:10495000FFE70298006850E8030F40F04000009025
:10496000FFE700990298026842E803100028F0D19E
:10497000FFE7FFE703E00298FFF7F8F9FFE704B06D
:1049800080BD000080B582B001900198806B0090DE
:104990000098FFF7FFF902B080BD000084B00390DB
:1049A000FFE7FFE70398006850E8030F20F49070DA
:1049B0000290FFE702990398026842E8031000287A
:1049C000F0D1FFE7FFE7FFE7FFE70398006850E853
:1049D000050F20F001000190FFE70199039802689C
:1049E00042E805100028F0D1FFE7FFE70398006BCD
:1049F000012814D1FFE7FFE7FFE70398006850E8BC
:104A0000030F20F010000090FFE700990398026860
:104A100042E803100028F0D1FFE7FFE7FFE7039922
:104A2000202081F8420003990020086304B07047F9
:104A300080B582B0019001980168C86820F04000FC
:104A4000C8600199202081F841000198FFF78EF994
:104A5000002002B080BD000082B00190FFE7FFE7B8
:104A60000198006850E8030F20F0C0000090FFE7B5
:104A700000990198026842E803100028F0D1FFE78E
:104A8000FFE70199202081F8410002B07047000043
:104A900080B586B00490002003900290049890F8AE
:104AA0004200222840F0A080FFE704988068B0F51B
:104AB000805F13D1FFE70498006978B9FFE7049895
:104AC000806A02900498006840686FF35F20029942
:104AD00008800499886A0230886223E00498806A1A
:104AE000039004988068B0F5805F08D0FFE70498D1
:104AF000806850B9FFE70498006930B9FFE704986F
:104B0000006840680399087007E0049800684068EE
:104B100000F07F0003990870FFE70499886A01306C
:104B20008862FFE70499C88D0138C8850004002811
:104B300056D1FFE704980168C86820F02000C860DB
:104B400004980168C86820F48070C86004980168FF
:104B5000486920F0010048610499202081F8420052
:104B60000499002048630498006B012830D1FFE7C6
:104B7000049900200863FFE7FFE70498006850E805
:104B8000030F20F010000190FFE7019904980268DC
:104B900042E803100028F0D1FFE7FFE7049800681F
:104BA0000068C00600280ED5FFE7FFE70020009050
:104BB00004980068006800900498006840680090BD
:104BC0000098FFE7FFE70498818DFEF719FD03E0E9
:104BD0000498FFF749F8FFE700208DF8170007E079
:104BE00000208DF8170003E002208DF81700FFE782
:104BF0009DF8170006B080BD80B586B00590059879
:104C00000068006920F44050059A1168D26810438A
:104C10000861059988680B694A69C9691843104396
:104C20000843049005980068C06849F20C61884305
:104C30000499084305990968C860059800684069A7
:104C400020F44070059A11689269104348610598F4
:104C5000006841F20001C4F20101884209D0FFE777
:104C60000598006841F20041C4F20101884204D174
:104C7000FFE7FDF757FC039003E0FDF741FC0390CD
:104C8000FFE70598C069B0F5004F29D1FFE7039809
:104C90001921A0FB0101059A1368029353685A0079
:104CA000DB0FFBF7E1FA0299864648F21F53C5F283
:104CB000EB13AEFB0320420910014FF0640C02FB22
:104CC0001CEC322202EBCC02A2FB0332F82303EAF3
:104CD000521300EB4300C2F342121044886026E0F6
:104CE00003981921A0FB0101059A136801935368E9
:104CF0009A009B0FFBF7B8FA0199844648F21F52BD
:104D0000C5F2EB12ACFB02304309642003FB10CC6C
:104D1000322000EB0C10A0FB0202F02000EA52103F
:104D200000EB0310C2F3431210448860FFE706B0A3
:104D300080BD000083B00190019890F841002128C7
:104D40003AD1FFE701988068B0F5805F13D1FFE7A3
:104D50000198006978B9FFE70198006A009000980F
:104D600000886FF35F200199096848600199086A1B
:104D70000230086208E0019A106A411C1162007852
:104D8000019909684860FFE70199C88C0138C88417
:104D9000000468B9FFE701980168C86820F0800046
:104DA000C86001980168C86840F04000C860FFE72B
:104DB00000208DF80B0003E002208DF80B00FFE7C8
:104DC0009DF80B0003B0704780B540F2CC20C2F2D2
:104DD0000000FEF71FFC80BDFFE7FEE781B08DF805
:104DE00003009DF9030000280ED4FFE79DF903108E
:104DF00001F01F02012090404A094EF20011CEF24C
:104E0000000141F82200FFE701B070474EF60C5058
:104E1000CEF200000068C0F30220704782B08DF827
:104E2000070000919DF9070000280AD4FFE70098C9
:104E300000019DF907104EF20042CEF200028854A4
:104E40000BE0009800019DF8071001F00F014EF6ED
:104E50001452CEF200028854FFE702B070470000FF
:104E600083B00290029800F0070000904EF60C51BB
:104E7000CEF200010868019001984FF6FF02104041
:104E800001900198009A40EA02200022C0F2FA52F2
:104E9000104301900198086003B0704780B58EB050
:104EA00001210C9100200A900B910490059006902E
:104EB00007900990089040F2E400C2F200000090D0
:104EC00004A90191FBF7D8FC0098FCF727FB009898
:104ED00002210291FBF7FAFB01990E200D90099037
:104EE00040F20C10C2F200000390FBF7C5FC0398DF
:104EF000FCF714FB02990398FBF7E8FB0EB080BDAA
:104F000040F2B000C2F20000704700000A20704773
:104F100081B08DF803009DF8030000F0030000EB62
:104F2000800140F21430C2F2000000EB410001B0F9
:104F3000704700000000000080B584B0002003909E
:104F400040F2DC01C2F200010860FDF7FBF8FFF758
:104F5000BBFAFEF79DFFFEF773FFFEF721FFFEF79A
:104F600047FFFFF7EDF8FFF721F8FFF763F8FFF7CA
:104F7000A3F840F2F410C2F20000FEF719F840F274
:104F80003C20C2F20000FEF713F840F28420C2F287
:104F90000000FEF70DF840F2CC20C2F20000FEF750
:104FA00067FDFFF77BFFFFE740F2E000C2F2000081
:104FB00000780146029120B1FFE7029801281DD038
:104FC0002CE041F60040C4F202004FF48051002270
:104FD0000192FDF78BF8019B40F27C30C2F2000099
:104FE00090ED000ABDEEC00A10EE100A19461A46EE
:104FF000FBF748FA0A20FCF735FE0FE041F60040C7
:10500000C4F202004FF480510122FDF76FF8002333
:10501000184619461A46FBF735FAFFE740F2DC005E
:10502000C2F2000090ED000AB8EE400A10EE100A3D
:1050300001F068F941EC100B9FED151B53EC112B9F
:1050400051EC100B00F066FF41EC100B51EC100B13
:105050009FED110B53EC102B00F0A8FD41EC100B51
:1050600000F03AF851EC100B9FED0D0B53EC102BA8
:1050700000F050FF41EC100B51EC100B00F0BCFCA9
:1050800040F28431C2F2000108608DE700BF00BF2A
:105090006E861BF0F9211940000000000000594005
:1050A000000000000040BF4003B401984100009898
:1050B00050EAC12018BF04204A0D18BF40F001007B
:1050C00040F2FF72B2EB515F08BF40F002000128CE
:1050D00008BF052002B0704710B52F499FED2C1B6B
:1050E0002DED020B84B0059820F000408842DCBF13
:1050F00000209DED040B32DD2849884209D1049837
:1051000040B94FF00100FBF756F900F03DFC06B046
:1051100010BD05DB9DED040B00F02AFC06B010BDB0
:1051200068469DED040B00F03BF810F0030011D031
:10513000012818D09DED021B9DED000B02281AD00E
:1051400000F04AFA51EC100B00F04AFC06B041ECBA
:10515000100B10BD9DED021B9DED000B012000F01A
:105160006FFB06B010BD9DED021B9DED000B00F026
:1051700033FA06B010BD012000F062FB51EC100BB9
:1051800000F02EFC06B041EC100B10BD000000003A
:105190000000000000000000FB21E93F0000F07F5C
:1051A0002DE9F14F04462DED020B2DED088B8AB051
:1051B0009FEDE70B80ED020B139EE74826F00045BC
:1051C00085420ADC9DED120B002084ED000B0AB035
:1051D000BDEC088B03B0BDE8F08FE0489FEDE0AB7D
:1051E0009FEDE1BBA84247DDE14F9FEDE39B9FEDC3
:1051F000E48B9DED120B53EC1A2B51EC100B002E8F
:105200001CDD00F091FF41EC100BBD4208D053ECC7
:105210001B2B51EC100B00F087FFC4E900010BE0E1
:1052200053EC192B51EC100B00F07EFF53EC182BB4
:1052300000F07AFFC4E900010120C8E700F00EFC8D
:1052400041EC100BBD4208D053EC1B2B51EC100B62
:1052500000F004FCC4E900010BE053EC192B51EC05
:10526000100B00F0FBFB53EC182B00F0F7FBC4E92C
:1052700000014FF0FF30AAE7C348A84279DB9DED5B
:10528000120B51EC100B00F09FFB41EC180B9FED43
:10529000C00B53EC102B00F03DFE9FEDBF1B53ECF9
:1052A000112B00F0DBFB00F0DBFD074600F007FEF2
:1052B00041EC190B53EC1A2B00F02CFE53EC182B7D
:1052C00000F026FF41EC180B53EC1B2B51EC190B93
:1052D00000F020FEDFF8C8A241EC100B4FEA155891
:1052E0000125FA4453EC102B51EC180B00F01CFF75
:1052F000032DC4E900013DD0C1F30A5005EB45116F
:10530000A8EB00001139814234DA0AEB051BB0EE3C
:1053100048AA9BED000BF0EE68AA53EC102B51EC61
:10532000190B00F0F7FD41EC1B0B51EC1A0B53EC81
:105330001B2B00F0F9FE41EC180B51EC1A0B53EC4F
:10534000182B00F0F1FE53EC1B2B00F0EDFE9BED53
:10535000020B41EC1A0B53EC102B51EC190B00F023
:10536000D9FD53EC1A2B00F0DFFE41EC100B6D1C45
:10537000B8E70EE0002EA8BF3846BFF628AF94ED80
:10538000000B51EC100B00F02BFBC4E9000178423C
:105390001DE7C6F3130040F4801EC6F30A50A0F2C6
:1053A000F530471100F01F05C5F12000DDF848B0C9
:1053B00008900020069007900520EC467949002DC2
:1053C00007EB0002794408BF51F8221009D051F8C8
:1053D000223001EB8201AB404A68089922FA01F1C0
:1053E0001943A1FB0E26A1FB0B131A449A4234BFAA
:1053F0000123002303EB06080CEB8003D3E901A68D
:105400000E448E4234BF0121002192448A4411B1DE
:10541000924502D903E0924501D2012100E000212A
:10542000C3E901A641444CF82010011EA0F101007F
:10543000C4DC029800F10050850F0298DDE9036793
:105440008000DDF8148000F03AFD41EC1A0B304684
:1054500000F04CFD9FED541B53EC112B00F05AFD56
:1054600041EC1B0B384600F041FD9FED511B53EC06
:10547000112B00F04FFD41EC180B404600F036FDBB
:105480009FED4D1B53EC112B00F044FD41EC190B2B
:1054900051EC180B53EC192B00F0E0FA53EC1B2BDA
:1054A00000F0DCFA53EC1A2B00F0D8FACDE9080131
:1054B000002008909DED080B53EC1A2B51EC100BBB
:1054C00000F032FE53EC1B2B00F02EFE53EC182B99
:1054D00000F02AFE53EC192B00F01AFE9FED381B4A
:1054E00053EC112B00F016FD9FED370B41EC180B20
:1054F00053EC102B9DED080B51EC100B00F00AFD46
:1055000053EC182B00F0AAFA9FED310B41EC180B6D
:1055100053EC102B9DED080B51EC100B00F0FAFC36
:1055200053EC182B00F09AFA41EC100B139810F082
:10553000004F06D06D4251EC100B00F051FA41ECD7
:10554000100B284684ED000B41E60000000000002F
:105550000000000000000000FB21E93F7CD9024070
:1055600000004054FB21F93F3163621A61B4D03D21
:10557000FB21F93F000000000000601A61B4D03D3B
:105580007370032E8A19A33BFB21394100000000F0
:1055900083C8C96D305FE43F000000000000E03FB9
:1055A0005A110000A8100000000000000000103E8A
:1055B000000000000000103C000000000000103A55
:1055C000182D4454FB21F93D3326A611460B113CFE
:1055D00000000054FB21F93D10B52DED040B2DED1D
:1055E000088B82B0B0EE419AF0EE619A0B9820F0F1
:1055F00000449FED4BABB4F1795F11DA9DED0A0BDE
:1056000051EC100B00F02CFC002801BFB0EE4A0A50
:10561000F0EE6A0A02B0BDEC088B04BF04B010BD06
:105620009DED0A0B53EC102B51EC100B00F072FCAB
:1056300041EC180B3C480621B0EE480AF0EE680A2F
:10564000784400F081F853EC182B51EC100B00F06B
:1056500061FC9DED0A0B41EC1B0B53EC192B51EC3B
:10566000100B00F057FC41EC190B53EC1B2B51ECC9
:10567000180B00F04FFC53EC192B00F055FD9FED7B
:105680002C0B41EC190B53EC102B51EC180B00F0C8
:1056900041FC41EC100B2848844210DA53EC192BE2
:1056A00051EC100B00F040FD53EC1A2B00F030FDD4
:1056B00041EC100B02B0BDEC088B04B010BD1F48CC
:1056C000A042BCBF9FED1E1B8DED001B06DBA4F5A9
:1056D00000100190002000909DED001B51EC100B7C
:1056E00053EC112B00F020FD9DED000B41EC180B4D
:1056F00053EC102B51EC1A0B00F016FD41EC1A0B79
:1057000053EC192B51EC180B00F00EFD53EC1A2B37
:1057100000F0FEFC41EC100BCCE7000000000000A4
:10572000000000000000F03FCC0D00000000000071
:10573000000000000000E03F3333D33F0000E93FAA
:10574000000000000000D23F70B504462DED028B32
:105750004D1E00EBC500B0EE408AF0EE608A90ED81
:10576000000B35F0060017D053EC182B51EC100B42
:1057700000F0D0FB41EC100B6D1E04EBC50090ED6A
:10578000001B51EC100B53EC112B00F067F941ECAE
:10579000100B35F00600E7D1022D36D0042D1CD0B9
:1057A000062D1CBFBDEC028B70BD53EC182B51ECC9
:1057B000100B00F0AFFB94ED0A1B53EC112B00F023
:1057C0004DF953EC182B00F0A5FB94ED081B53EC9E
:1057D000112B00F043F941EC100B53EC182B51EC5A
:1057E000100B00F097FB94ED061B53EC112B00F00F
:1057F00035F953EC182B00F08DFB94ED040B53ECB2
:10580000102B00F02BF941EC100B53EC182B51EC42
:10581000100B00F07FFB94ED021B53EC112B00F0FA
:105820001DF953EC182B00F075FB94ED001B53ECA5
:10583000112B00F013F9BDEC028B41EC100B70BD85
:1058400031B504462DED040B2DED0A8BB0EE41BAB7
:10585000F0EE61BA0B989DED0A0B20F00040B0F11C
:10586000795F0DDA51EC100BFFF71EFC042808BF1E
:1058700000F09AF89DED0A0BBDEC0A8B05B030BD27
:1058800053EC102B51EC100B00F044FB41EC180BC7
:105890009DED0A0B53EC182B51EC100B00F03AFB6A
:1058A00041EC190B2C48B0EE480AF0EE680A0521CD
:1058B0007844FFF749FF9FED2ACBB0EE40AAF0EE07
:1058C00060AA9CB353EC1C2B51EC190B00F022FB8B
:1058D00041EC1C0B53EC1A2B51EC190B00F01AFB8A
:1058E0009FED210B41EC190B53EC102B51EC1B0BD2
:1058F00000F010FB53EC192B00F016FC53EC182BA6
:1059000000F008FB53EC1B2B00F00EFC53EC1C2B9F
:1059100000F00AFC9DED0A1B53EC112B00F0F8FB84
:10592000BDEC0A8B05B041EC100B30BDFFE753EC2A
:105930001A2B51EC180B00F0EDFA53EC1C2B00F075
:105940008DF853EC192B00F0E5FA9DED0A1B53EC92
:10595000112B00F083F8E3E75C0C0000000000006E
:10596000495555555555C5BF000000000000E03FA2
:1059700010B553EC102B51EC100B00F06FF841EC0C
:10598000100B10BD000000009FED050B10B553EC8F
:10599000102B51EC100B00F009F941EC100B10BD6D
:1059A00000000000000000009FED050B10B553EC57
:1059B000102B51EC100B00F0ADFA41EC100B10BDA8
:1059C000000000000000001082B0CDE9000121F0CD
:1059D000004001909DED000B02B051EC100B7047A0
:1059E00081F00041704780F00040704721F0004195
:1059F000704720F00040704721F0004201F0004362
:105A0000A2F16052B2F5801F28BFD2F17F6C0BD992
:105A10005FEA001C43EAC20242EB507018BF7047B5
:105A200028BF20F001007047B2F5801FBCBF1846A8
:105A300070474FEA410C1CF5001F02D2084600F0E7
:105A4000DFBC70B500F010FB00000089FFF7F6BF67
:105A50004FF00040A0F580007047000010B591EABB
:105A6000030F48BF83F0004300F16683841A71EB93
:105A7000030C05D2121943EB0C03001B61EB0C0164
:105A80004FEA1154A4EB135CDFF81CE11EEA430F4C
:105A900018BF9EEA445F00F0748021EA045123EAB3
:105AA0000E0343F48013DCF1200E32D322FA0CFEF5
:105AB00010EB0E0023FA0CFE41EB0E01CCF1200E90
:105AC00003FA0EFE10EB0E00CCF1200E51F1000196
:105AD000B1F5801F32D201EB045112FA0EF2BDE88B
